{
  "contractName": "CryptoPlanets",
  "abi": [
    {
      "constant": true,
      "inputs": [],
      "name": "ceoAddress",
      "outputs": [
        {
          "name": "",
          "type": "address"
        }
      ],
      "payable": false,
      "stateMutability": "view",
      "type": "function"
    },
    {
      "constant": false,
      "inputs": [
        {
          "name": "_newCEO",
          "type": "address"
        }
      ],
      "name": "setCEO",
      "outputs": [],
      "payable": false,
      "stateMutability": "nonpayable",
      "type": "function"
    },
    {
      "constant": false,
      "inputs": [
        {
          "name": "_newCOO",
          "type": "address"
        }
      ],
      "name": "setCOO",
      "outputs": [],
      "payable": false,
      "stateMutability": "nonpayable",
      "type": "function"
    },
    {
      "constant": false,
      "inputs": [],
      "name": "unpause",
      "outputs": [],
      "payable": false,
      "stateMutability": "nonpayable",
      "type": "function"
    },
    {
      "constant": true,
      "inputs": [],
      "name": "paused",
      "outputs": [
        {
          "name": "",
          "type": "bool"
        }
      ],
      "payable": false,
      "stateMutability": "view",
      "type": "function"
    },
    {
      "constant": false,
      "inputs": [],
      "name": "pause",
      "outputs": [],
      "payable": false,
      "stateMutability": "nonpayable",
      "type": "function"
    },
    {
      "constant": true,
      "inputs": [],
      "name": "cooAddress",
      "outputs": [
        {
          "name": "",
          "type": "address"
        }
      ],
      "payable": false,
      "stateMutability": "view",
      "type": "function"
    },
    {
      "anonymous": false,
      "inputs": [
        {
          "indexed": false,
          "name": "tokenId",
          "type": "uint256"
        },
        {
          "indexed": false,
          "name": "_age",
          "type": "uint256"
        },
        {
          "indexed": false,
          "name": "_habitable",
          "type": "bool"
        },
        {
          "indexed": false,
          "name": "_name",
          "type": "string"
        },
        {
          "indexed": false,
          "name": "_stellarSystem",
          "type": "string"
        },
        {
          "indexed": false,
          "name": "_color",
          "type": "string"
        },
        {
          "indexed": false,
          "name": "price",
          "type": "uint256"
        },
        {
          "indexed": false,
          "name": "owner",
          "type": "address"
        }
      ],
      "name": "TokenCreated",
      "type": "event"
    },
    {
      "anonymous": false,
      "inputs": [
        {
          "indexed": true,
          "name": "tokenId",
          "type": "uint256"
        },
        {
          "indexed": false,
          "name": "_age",
          "type": "uint256"
        },
        {
          "indexed": false,
          "name": "_habitable",
          "type": "bool"
        },
        {
          "indexed": false,
          "name": "_name",
          "type": "string"
        },
        {
          "indexed": false,
          "name": "_stellarSystem",
          "type": "string"
        },
        {
          "indexed": false,
          "name": "_color",
          "type": "string"
        },
        {
          "indexed": false,
          "name": "sellingPrice",
          "type": "uint256"
        },
        {
          "indexed": false,
          "name": "newPrice",
          "type": "uint256"
        },
        {
          "indexed": true,
          "name": "oldOwner",
          "type": "address"
        },
        {
          "indexed": true,
          "name": "newOwner",
          "type": "address"
        }
      ],
      "name": "TokenSold",
      "type": "event"
    },
    {
      "anonymous": false,
      "inputs": [
        {
          "indexed": true,
          "name": "_from",
          "type": "address"
        },
        {
          "indexed": true,
          "name": "_to",
          "type": "address"
        },
        {
          "indexed": false,
          "name": "_tokenId",
          "type": "uint256"
        }
      ],
      "name": "Transfer",
      "type": "event"
    },
    {
      "anonymous": false,
      "inputs": [
        {
          "indexed": true,
          "name": "_owner",
          "type": "address"
        },
        {
          "indexed": true,
          "name": "_approved",
          "type": "address"
        },
        {
          "indexed": false,
          "name": "_tokenId",
          "type": "uint256"
        }
      ],
      "name": "Approval",
      "type": "event"
    },
    {
      "constant": false,
      "inputs": [
        {
          "name": "_name",
          "type": "string"
        }
      ],
      "name": "createToken",
      "outputs": [],
      "payable": false,
      "stateMutability": "nonpayable",
      "type": "function"
    },
    {
      "constant": false,
      "inputs": [
        {
          "name": "_name",
          "type": "string"
        },
        {
          "name": "_owner",
          "type": "address"
        },
        {
          "name": "_price",
          "type": "uint256"
        }
      ],
      "name": "createToken",
      "outputs": [],
      "payable": false,
      "stateMutability": "nonpayable",
      "type": "function"
    },
    {
      "constant": true,
      "inputs": [
        {
          "name": "_tokenId",
          "type": "uint256"
        }
      ],
      "name": "getToken",
      "outputs": [
        {
          "name": "_tokenName",
          "type": "string"
        },
        {
          "name": "_age",
          "type": "uint256"
        },
        {
          "name": "_habitable",
          "type": "bool"
        },
        {
          "name": "_stellarSystem",
          "type": "string"
        },
        {
          "name": "_color",
          "type": "string"
        },
        {
          "name": "_price",
          "type": "uint256"
        },
        {
          "name": "_nextPrice",
          "type": "uint256"
        },
        {
          "name": "_owner",
          "type": "address"
        }
      ],
      "payable": false,
      "stateMutability": "view",
      "type": "function"
    },
    {
      "constant": true,
      "inputs": [],
      "name": "getAllTokens",
      "outputs": [
        {
          "name": "",
          "type": "uint256[]"
        },
        {
          "name": "",
          "type": "uint256[]"
        },
        {
          "name": "",
          "type": "address[]"
        }
      ],
      "payable": false,
      "stateMutability": "view",
      "type": "function"
    },
    {
      "constant": true,
      "inputs": [
        {
          "name": "_owner",
          "type": "address"
        }
      ],
      "name": "tokensOf",
      "outputs": [
        {
          "name": "",
          "type": "uint256[]"
        }
      ],
      "payable": false,
      "stateMutability": "view",
      "type": "function"
    },
    {
      "constant": false,
      "inputs": [
        {
          "name": "_to",
          "type": "address"
        },
        {
          "name": "_amount",
          "type": "uint256"
        }
      ],
      "name": "withdrawBalance",
      "outputs": [],
      "payable": false,
      "stateMutability": "nonpayable",
      "type": "function"
    },
    {
      "constant": false,
      "inputs": [
        {
          "name": "_tokenId",
          "type": "uint256"
        }
      ],
      "name": "purchase",
      "outputs": [],
      "payable": true,
      "stateMutability": "payable",
      "type": "function"
    },
    {
      "constant": true,
      "inputs": [
        {
          "name": "_tokenId",
          "type": "uint256"
        }
      ],
      "name": "priceOf",
      "outputs": [
        {
          "name": "_price",
          "type": "uint256"
        }
      ],
      "payable": false,
      "stateMutability": "view",
      "type": "function"
    },
    {
      "constant": true,
      "inputs": [
        {
          "name": "_tokenId",
          "type": "uint256"
        }
      ],
      "name": "nextPriceOf",
      "outputs": [
        {
          "name": "_nextPrice",
          "type": "uint256"
        }
      ],
      "payable": false,
      "stateMutability": "view",
      "type": "function"
    },
    {
      "constant": false,
      "inputs": [],
      "name": "enableERC721",
      "outputs": [],
      "payable": false,
      "stateMutability": "nonpayable",
      "type": "function"
    },
    {
      "constant": true,
      "inputs": [],
      "name": "totalSupply",
      "outputs": [
        {
          "name": "_totalSupply",
          "type": "uint256"
        }
      ],
      "payable": false,
      "stateMutability": "view",
      "type": "function"
    },
    {
      "constant": true,
      "inputs": [
        {
          "name": "_owner",
          "type": "address"
        }
      ],
      "name": "balanceOf",
      "outputs": [
        {
          "name": "_balance",
          "type": "uint256"
        }
      ],
      "payable": false,
      "stateMutability": "view",
      "type": "function"
    },
    {
      "constant": true,
      "inputs": [
        {
          "name": "_tokenId",
          "type": "uint256"
        }
      ],
      "name": "ownerOf",
      "outputs": [
        {
          "name": "_owner",
          "type": "address"
        }
      ],
      "payable": false,
      "stateMutability": "view",
      "type": "function"
    },
    {
      "constant": false,
      "inputs": [
        {
          "name": "_to",
          "type": "address"
        },
        {
          "name": "_tokenId",
          "type": "uint256"
        }
      ],
      "name": "approve",
      "outputs": [],
      "payable": false,
      "stateMutability": "nonpayable",
      "type": "function"
    },
    {
      "constant": false,
      "inputs": [
        {
          "name": "_from",
          "type": "address"
        },
        {
          "name": "_to",
          "type": "address"
        },
        {
          "name": "_tokenId",
          "type": "uint256"
        }
      ],
      "name": "transferFrom",
      "outputs": [],
      "payable": false,
      "stateMutability": "nonpayable",
      "type": "function"
    },
    {
      "constant": false,
      "inputs": [
        {
          "name": "_to",
          "type": "address"
        },
        {
          "name": "_tokenId",
          "type": "uint256"
        }
      ],
      "name": "transfer",
      "outputs": [],
      "payable": false,
      "stateMutability": "nonpayable",
      "type": "function"
    },
    {
      "constant": true,
      "inputs": [],
      "name": "implementsERC721",
      "outputs": [
        {
          "name": "",
          "type": "bool"
        }
      ],
      "payable": false,
      "stateMutability": "view",
      "type": "function"
    },
    {
      "constant": false,
      "inputs": [
        {
          "name": "_tokenId",
          "type": "uint256"
        }
      ],
      "name": "takeOwnership",
      "outputs": [],
      "payable": false,
      "stateMutability": "nonpayable",
      "type": "function"
    },
    {
      "constant": true,
      "inputs": [],
      "name": "name",
      "outputs": [
        {
          "name": "_name",
          "type": "string"
        }
      ],
      "payable": false,
      "stateMutability": "view",
      "type": "function"
    },
    {
      "constant": true,
      "inputs": [],
      "name": "symbol",
      "outputs": [
        {
          "name": "_symbol",
          "type": "string"
        }
      ],
      "payable": false,
      "stateMutability": "view",
      "type": "function"
    }
  ],
  "bytecode": "0x60806040526000600160146101000a81548160ff021916908315150217905550662386f26fc100006007556000600860006101000a81548160ff02191690831515021790555067016345785d8a0000600955670de0b6b3a7640000600a55678ac7230489e80000600b55336000806101000a81548173ffffffffffffffffffffffffffffffffffffffff021916908373ffffffffffffffffffffffffffffffffffffffff16021790555033600160006101000a81548173ffffffffffffffffffffffffffffffffffffffff021916908373ffffffffffffffffffffffffffffffffffffffff160217905550613054806100f96000396000f30060806040526004361061015f576000357c0100000000000000000000000000000000000000000000000000000000900463ffffffff16806306fdde0314610164578063095ea7b3146101f45780630a0f8168146102415780630cf20cc9146102985780631051db34146102e557806318160ddd1461031457806323b872dd1461033f57806327d7874c146103ac5780632a5c792a146103ef5780632ba73c15146104eb5780633f4ba83a1461052e57806345576f94146105455780635a3f2672146105ae5780635ba9e48e146106465780635c975abb146106875780636352211e146106b657806370a082311461072357806371dc761e1461077a57806373b4df05146107915780638456cb591461082457806395d89b411461083b578063a9059cbb146108cb578063b047fb5014610918578063b2e6ceeb1461096f578063b9186d7d1461099c578063e4b50cb8146109dd578063efef39a114610bae575b600080fd5b34801561017057600080fd5b50610179610bce565b6040518080602001828103825283818151815260200191508051906020019080838360005b838110156101b957808201518184015260208101905061019e565b50505050905090810190601f1680156101e65780820380516001836020036101000a031916815260200191505b509250505060405180910390f35b34801561020057600080fd5b5061023f600480360381019080803573ffffffffffffffffffffffffffffffffffffffff16906020019092919080359060200190929190505050610c0b565b005b34801561024d57600080fd5b50610256610d12565b604051808273ffffffffffffffffffffffffffffffffffffffff1673ffffffffffffffffffffffffffffffffffffffff16815260200191505060405180910390f35b3480156102a457600080fd5b506102e3600480360381019080803573ffffffffffffffffffffffffffffffffffffffff16906020019092919080359060200190929190505050610d37565b005b3480156102f157600080fd5b506102fa610eca565b604051808215151515815260200191505060405180910390f35b34801561032057600080fd5b50610329610efd565b6040518082815260200191505060405180910390f35b34801561034b57600080fd5b506103aa600480360381019080803573ffffffffffffffffffffffffffffffffffffffff169060200190929190803573ffffffffffffffffffffffffffffffffffffffff16906020019092919080359060200190929190505050610f0a565b005b3480156103b857600080fd5b506103ed600480360381019080803573ffffffffffffffffffffffffffffffffffffffff169060200190929190505050610fb7565b005b3480156103fb57600080fd5b50610404611091565b60405180806020018060200180602001848103845287818151815260200191508051906020019060200280838360005b8381101561044f578082015181840152602081019050610434565b50505050905001848103835286818151815260200191508051906020019060200280838360005b83811015610491578082015181840152602081019050610476565b50505050905001848103825285818151815260200191508051906020019060200280838360005b838110156104d35780820151818401526020810190506104b8565b50505050905001965050505050505060405180910390f35b3480156104f757600080fd5b5061052c600480360381019080803573ffffffffffffffffffffffffffffffffffffffff16906020019092919050505061123f565b005b34801561053a57600080fd5b5061054361131a565b005b34801561055157600080fd5b506105ac600480360381019080803590602001908201803590602001908080601f01602080910402602001604051908101604052809392919081815260200183838082843782019150505050505091929192905050506113ad565b005b3480156105ba57600080fd5b506105ef600480360381019080803573ffffffffffffffffffffffffffffffffffffffff1690602001909291905050506114a6565b6040518080602001828103825283818151815260200191508051906020019060200280838360005b83811015610632578082015181840152602081019050610617565b505050509050019250505060405180910390f35b34801561065257600080fd5b50610671600480360381019080803590602001909291905050506115f2565b6040518082815260200191505060405180910390f35b34801561069357600080fd5b5061069c6116af565b604051808215151515815260200191505060405180910390f35b3480156106c257600080fd5b506106e1600480360381019080803590602001909291905050506116c2565b604051808273ffffffffffffffffffffffffffffffffffffffff1673ffffffffffffffffffffffffffffffffffffffff16815260200191505060405180910390f35b34801561072f57600080fd5b50610764600480360381019080803573ffffffffffffffffffffffffffffffffffffffff1690602001909291905050506116ff565b6040518082815260200191505060405180910390f35b34801561078657600080fd5b5061078f611748565b005b34801561079d57600080fd5b50610822600480360381019080803590602001908201803590602001908080601f0160208091040260200160405190810160405280939291908181526020018383808284378201915050505050509192919290803573ffffffffffffffffffffffffffffffffffffffff169060200190929190803590602001909291905050506117c0565b005b34801561083057600080fd5b50610839611906565b005b34801561084757600080fd5b50610850611999565b6040518080602001828103825283818151815260200191508051906020019080838360005b83811015610890578082015181840152602081019050610875565b50505050905090810190601f1680156108bd5780820380516001836020036101000a031916815260200191505b509250505060405180910390f35b3480156108d757600080fd5b50610916600480360381019080803573ffffffffffffffffffffffffffffffffffffffff169060200190929190803590602001909291905050506119d6565b005b34801561092457600080fd5b5061092d611a6d565b604051808273ffffffffffffffffffffffffffffffffffffffff1673ffffffffffffffffffffffffffffffffffffffff16815260200191505060405180910390f35b34801561097b57600080fd5b5061099a60048036038101908080359060200190929190505050611a93565b005b3480156109a857600080fd5b506109c760048036038101908080359060200190929190505050611b20565b6040518082815260200191505060405180910390f35b3480156109e957600080fd5b50610a0860048036038101908080359060200190929190505050611b3d565b60405180806020018981526020018815151515815260200180602001806020018781526020018681526020018573ffffffffffffffffffffffffffffffffffffffff1673ffffffffffffffffffffffffffffffffffffffff16815260200184810384528c818151815260200191508051906020019080838360005b83811015610a9e578082015181840152602081019050610a83565b50505050905090810190601f168015610acb5780820380516001836020036101000a031916815260200191505b50848103835289818151815260200191508051906020019080838360005b83811015610b04578082015181840152602081019050610ae9565b50505050905090810190601f168015610b315780820380516001836020036101000a031916815260200191505b50848103825288818151815260200191508051906020019080838360005b83811015610b6a578082015181840152602081019050610b4f565b50505050905090810190601f168015610b975780820380516001836020036101000a031916815260200191505b509b50505050505050505050505060405180910390f35b610bcc60048036038101908080359060200190929190505050611e30565b005b60606040805190810160405280600d81526020017f43727970746f506c616e65747300000000000000000000000000000000000000815250905090565b600160149054906101000a900460ff16151515610c2757600080fd5b600860009054906101000a900460ff161515610c4257600080fd5b610c4c338261237b565b1515610c5757600080fd5b816005600083815260200190815260200160002060006101000a81548173ffffffffffffffffffffffffffffffffffffffff021916908373ffffffffffffffffffffffffffffffffffffffff1602179055508173ffffffffffffffffffffffffffffffffffffffff163373ffffffffffffffffffffffffffffffffffffffff167f8c5be1e5ebec7d5bd14f71427d1e84f3dd0314c0f7b2291e5b200ac8c7c3b925836040518082815260200191505060405180910390a35050565b6000809054906101000a900473ffffffffffffffffffffffffffffffffffffffff1681565b6000809054906101000a900473ffffffffffffffffffffffffffffffffffffffff1673ffffffffffffffffffffffffffffffffffffffff163373ffffffffffffffffffffffffffffffffffffffff16141515610d9257600080fd5b3073ffffffffffffffffffffffffffffffffffffffff16318111151515610db857600080fd5b6000811415610ddc573073ffffffffffffffffffffffffffffffffffffffff163190505b600073ffffffffffffffffffffffffffffffffffffffff168273ffffffffffffffffffffffffffffffffffffffff161415610e7e576000809054906101000a900473ffffffffffffffffffffffffffffffffffffffff1673ffffffffffffffffffffffffffffffffffffffff166108fc829081150290604051600060405180830381858888f19350505050158015610e78573d6000803e3d6000fd5b50610ec6565b8173ffffffffffffffffffffffffffffffffffffffff166108fc829081150290604051600060405180830381858888f19350505050158015610ec4573d6000803e3d6000fd5b505b5050565b6000600160149054906101000a900460ff16151515610ee857600080fd5b600860009054906101000a900460ff16905090565b6000600680549050905090565b600160149054906101000a900460ff16151515610f2657600080fd5b600860009054906101000a900460ff161515610f4157600080fd5b600073ffffffffffffffffffffffffffffffffffffffff168273ffffffffffffffffffffffffffffffffffffffff1614151515610f7d57600080fd5b610f87838261237b565b1515610f9257600080fd5b610f9c33826123e7565b1515610fa757600080fd5b610fb2838383612453565b505050565b6000809054906101000a900473ffffffffffffffffffffffffffffffffffffffff1673ffffffffffffffffffffffffffffffffffffffff163373ffffffffffffffffffffffffffffffffffffffff1614151561101257600080fd5b600073ffffffffffffffffffffffffffffffffffffffff168173ffffffffffffffffffffffffffffffffffffffff161415151561104e57600080fd5b806000806101000a81548173ffffffffffffffffffffffffffffffffffffffff021916908373ffffffffffffffffffffffffffffffffffffffff16021790555050565b60608060606000606080606060006110a7610efd565b9450846040519080825280602002602001820160405280156110d85781602001602082028038833980820191505090505b5093508460405190808252806020026020018201604052801561110a5781602001602082028038833980820191505090505b5092508460405190808252806020026020018201604052801561113c5781602001602082028038833980820191505090505b509150600090505b8481101561122c576003600082815260200190815260200160002054848281518110151561116e57fe5b9060200190602002018181525050611185816115f2565b838281518110151561119357fe5b90602001906020020181815250506002600082815260200190815260200160002060009054906101000a900473ffffffffffffffffffffffffffffffffffffffff1682828151811015156111e357fe5b9060200190602002019073ffffffffffffffffffffffffffffffffffffffff16908173ffffffffffffffffffffffffffffffffffffffff16815250508080600101915050611144565b8383839750975097505050505050909192565b6000809054906101000a900473ffffffffffffffffffffffffffffffffffffffff1673ffffffffffffffffffffffffffffffffffffffff163373ffffffffffffffffffffffffffffffffffffffff1614151561129a57600080fd5b600073ffffffffffffffffffffffffffffffffffffffff168173ffffffffffffffffffffffffffffffffffffffff16141515156112d657600080fd5b80600160006101000a81548173ffffffffffffffffffffffffffffffffffffffff021916908373ffffffffffffffffffffffffffffffffffffffff16021790555050565b6000809054906101000a900473ffffffffffffffffffffffffffffffffffffffff1673ffffffffffffffffffffffffffffffffffffffff163373ffffffffffffffffffffffffffffffffffffffff1614151561137557600080fd5b600160149054906101000a900460ff16151561139057600080fd5b6000600160146101000a81548160ff021916908315150217905550565b6060806000806000809054906101000a900473ffffffffffffffffffffffffffffffffffffffff1673ffffffffffffffffffffffffffffffffffffffff163373ffffffffffffffffffffffffffffffffffffffff16148061145b5750600160009054906101000a900473ffffffffffffffffffffffffffffffffffffffff1673ffffffffffffffffffffffffffffffffffffffff163373ffffffffffffffffffffffffffffffffffffffff16145b151561146657600080fd5b61146e61261b565b93506114786128be565b9250611482612b61565b915061148c612b8e565b905061149f828287878730600754612bbd565b5050505050565b60606000606060008060006114ba876116ff565b945060008514156114fd5760006040519080825280602002602001820160405280156114f55781602001602082028038833980820191505090505b5095506115e8565b8460405190808252806020026020018201604052801561152c5781602001602082028038833980820191505090505b509350611537610efd565b925060009150600090505b828110156115e4578673ffffffffffffffffffffffffffffffffffffffff166002600083815260200190815260200160002060009054906101000a900473ffffffffffffffffffffffffffffffffffffffff1673ffffffffffffffffffffffffffffffffffffffff1614156115d7578084838151811015156115c057fe5b906020019060200201818152505081806001019250505b8080600101915050611542565b8395505b5050505050919050565b6000806115fe83611b20565b9050600954811015611638576116316002611623600384612ea690919063ffffffff16565b612ee190919063ffffffff16565b91506116a9565b600a5481101561167057611669600461165b600584612ea690919063ffffffff16565b612ee190919063ffffffff16565b91506116a9565b600b548110156116a8576116a1600a611693600b84612ea690919063ffffffff16565b612ee190919063ffffffff16565b91506116a9565b5b50919050565b600160149054906101000a900460ff1681565b60006002600083815260200190815260200160002060009054906101000a900473ffffffffffffffffffffffffffffffffffffffff169050919050565b6000600460008373ffffffffffffffffffffffffffffffffffffffff1673ffffffffffffffffffffffffffffffffffffffff168152602001908152602001600020549050919050565b6000809054906101000a900473ffffffffffffffffffffffffffffffffffffffff1673ffffffffffffffffffffffffffffffffffffffff163373ffffffffffffffffffffffffffffffffffffffff161415156117a357600080fd5b6001600860006101000a81548160ff021916908315150217905550565b6060806000806000809054906101000a900473ffffffffffffffffffffffffffffffffffffffff1673ffffffffffffffffffffffffffffffffffffffff163373ffffffffffffffffffffffffffffffffffffffff16148061186e5750600160009054906101000a900473ffffffffffffffffffffffffffffffffffffffff1673ffffffffffffffffffffffffffffffffffffffff163373ffffffffffffffffffffffffffffffffffffffff16145b151561187957600080fd5b600073ffffffffffffffffffffffffffffffffffffffff168673ffffffffffffffffffffffffffffffffffffffff16141515156118b557600080fd5b60075485101515156118c657600080fd5b6118ce61261b565b93506118d86128be565b92506118e2612b61565b91506118ec612b8e565b90506118fd82828987878b8b612bbd565b50505050505050565b6000809054906101000a900473ffffffffffffffffffffffffffffffffffffffff1673ffffffffffffffffffffffffffffffffffffffff163373ffffffffffffffffffffffffffffffffffffffff1614151561196157600080fd5b600160149054906101000a900460ff1615151561197d57600080fd5b60018060146101000a81548160ff021916908315150217905550565b60606040805190810160405280600481526020017f43504c4e00000000000000000000000000000000000000000000000000000000815250905090565b600160149054906101000a900460ff161515156119f257600080fd5b600860009054906101000a900460ff161515611a0d57600080fd5b600073ffffffffffffffffffffffffffffffffffffffff168273ffffffffffffffffffffffffffffffffffffffff1614151515611a4957600080fd5b611a53338261237b565b1515611a5e57600080fd5b611a69338383612453565b5050565b600160009054906101000a900473ffffffffffffffffffffffffffffffffffffffff1681565b600160149054906101000a900460ff16151515611aaf57600080fd5b600860009054906101000a900460ff161515611aca57600080fd5b611ad433826123e7565b1515611adf57600080fd5b611b1d6002600083815260200190815260200160002060009054906101000a900473ffffffffffffffffffffffffffffffffffffffff163383612453565b50565b600060036000838152602001908152602001600020549050919050565b60606000806060806000806000600689815481101515611b5957fe5b90600052602060002090600502016002018054600181600116156101000203166002900480601f016020809104026020016040519081016040528092919081815260200182805460018160011615610100020316600290048015611bfe5780601f10611bd357610100808354040283529160200191611bfe565b820191906000526020600020905b815481529060010190602001808311611be157829003601f168201915b50505050509750600689815481101515611c1457fe5b9060005260206000209060050201600001549650600689815481101515611c3757fe5b906000526020600020906005020160010160009054906101000a900460ff169550600689815481101515611c6757fe5b90600052602060002090600502016003018054600181600116156101000203166002900480601f016020809104026020016040519081016040528092919081815260200182805460018160011615610100020316600290048015611d0c5780601f10611ce157610100808354040283529160200191611d0c565b820191906000526020600020905b815481529060010190602001808311611cef57829003601f168201915b50505050509450600689815481101515611d2257fe5b90600052602060002090600502016004018054600181600116156101000203166002900480601f016020809104026020016040519081016040528092919081815260200182805460018160011615610100020316600290048015611dc75780601f10611d9c57610100808354040283529160200191611dc7565b820191906000526020600020905b815481529060010190602001808311611daa57829003601f168201915b50505050509350600360008a8152602001908152602001600020549250611ded896115f2565b9150600260008a815260200190815260200160002060009054906101000a900473ffffffffffffffffffffffffffffffffffffffff169050919395975091939597565b600080600080600080600160149054906101000a900460ff16151515611e5557600080fd5b611e5e876116c2565b9550339450611e6c87611b20565b9350600073ffffffffffffffffffffffffffffffffffffffff168673ffffffffffffffffffffffffffffffffffffffff1614151515611eaa57600080fd5b600073ffffffffffffffffffffffffffffffffffffffff168573ffffffffffffffffffffffffffffffffffffffff1614151515611ee657600080fd5b8473ffffffffffffffffffffffffffffffffffffffff168673ffffffffffffffffffffffffffffffffffffffff1614151515611f2157600080fd5b611f2a85612efc565b151515611f3657600080fd5b600084111515611f4557600080fd5b833410151515611f5457600080fd5b611f5f868689612453565b611f68876115f2565b6003600089815260200190815260200160002081905550611f8887611b20565b92508473ffffffffffffffffffffffffffffffffffffffff168673ffffffffffffffffffffffffffffffffffffffff16887f3c892a1c8337bae490fc589a5609a242c3d6c4acc232a86b9ab50d49161d633b60068b815481101515611fe957fe5b90600052602060002090600502016000015460068c81548110151561200a57fe5b906000526020600020906005020160010160009054906101000a900460ff1660068d81548110151561203857fe5b906000526020600020906005020160020160068e81548110151561205857fe5b906000526020600020906005020160030160068f81548110151561207857fe5b90600052602060002090600502016004018c8c60405180888152602001871515151581526020018060200180602001806020018681526020018581526020018481038452898181546001816001161561010002031660029004815260200191508054600181600116156101000203166002900480156121385780601f1061210d57610100808354040283529160200191612138565b820191906000526020600020905b81548152906001019060200180831161211b57829003601f168201915b50508481038352888181546001816001161561010002031660029004815260200191508054600181600116156101000203166002900480156121bb5780601f10612190576101008083540402835291602001916121bb565b820191906000526020600020905b81548152906001019060200180831161219e57829003601f168201915b505084810382528781815460018160011615610100020316600290048152602001915080546001816001161561010002031660029004801561223e5780601f106122135761010080835404028352916020019161223e565b820191906000526020600020905b81548152906001019060200180831161222157829003601f168201915b50509a505050505050505050505060405180910390a46122678434612f0f90919063ffffffff16565b91506122906064612282600587612ea690919063ffffffff16565b612ee190919063ffffffff16565b90503073ffffffffffffffffffffffffffffffffffffffff168673ffffffffffffffffffffffffffffffffffffffff16141515612321578573ffffffffffffffffffffffffffffffffffffffff166108fc6122f48387612f0f90919063ffffffff16565b9081150290604051600060405180830381858888f1935050505015801561231f573d6000803e3d6000fd5b505b6000821115612372578473ffffffffffffffffffffffffffffffffffffffff166108fc839081150290604051600060405180830381858888f19350505050158015612370573d6000803e3d6000fd5b505b50505050505050565b60008273ffffffffffffffffffffffffffffffffffffffff166002600084815260200190815260200160002060009054906101000a900473ffffffffffffffffffffffffffffffffffffffff1673ffffffffffffffffffffffffffffffffffffffff1614905092915050565b60008273ffffffffffffffffffffffffffffffffffffffff166005600084815260200190815260200160002060009054906101000a900473ffffffffffffffffffffffffffffffffffffffff1673ffffffffffffffffffffffffffffffffffffffff1614905092915050565b600460008373ffffffffffffffffffffffffffffffffffffffff1673ffffffffffffffffffffffffffffffffffffffff16815260200190815260200160002060008154809291906001019190505550816002600083815260200190815260200160002060006101000a81548173ffffffffffffffffffffffffffffffffffffffff021916908373ffffffffffffffffffffffffffffffffffffffff160217905550600073ffffffffffffffffffffffffffffffffffffffff168373ffffffffffffffffffffffffffffffffffffffff161415156125b157600460008473ffffffffffffffffffffffffffffffffffffffff1673ffffffffffffffffffffffffffffffffffffffff16815260200190815260200160002060008154809291906001900391905055506005600082815260200190815260200160002060006101000a81549073ffffffffffffffffffffffffffffffffffffffff02191690555b8173ffffffffffffffffffffffffffffffffffffffff168373ffffffffffffffffffffffffffffffffffffffff167fddf252ad1be2c89b69c2b068fc378daa952ba7f163c4a11628f55a4df523b3ef836040518082815260200191505060405180910390a3505050565b6060612625612f28565b610140604051908101604052806040805190810160405280600f81526020017f416c70686120416e64726f6d656461000000000000000000000000000000000081525081526020016040805190810160405280600c81526020017f4265746120426fc3b6746573000000000000000000000000000000000000000081525081526020016040805190810160405280600c81526020017f47616d6d61204361656c756d000000000000000000000000000000000000000081525081526020016040805190810160405280600f81526020017f416c7068612044656c7068696e7573000000000000000000000000000000000081525081526020016040805190810160405280600d81526020017f4265746120457175756c6575730000000000000000000000000000000000000081525081526020016040805190810160405280600c81526020017f47616d6d6120466f726e6178000000000000000000000000000000000000000081525081526020016040805190810160405280600c81526020017f416c7068612047656d696e69000000000000000000000000000000000000000081525081526020016040805190810160405280600d81526020017f426574612048657263756c65730000000000000000000000000000000000000081525081526020016040805190810160405280600b81526020017f47616d6d6120496e64757300000000000000000000000000000000000000000081525081526020016040805190810160405280600d81526020017f44656c7461204c61636572746100000000000000000000000000000000000000815250815250905080600a42604051808281526020019150506040518091039020600190048115156128a657fe5b06600a811015156128b357fe5b602002015191505090565b60606128c8612f28565b610140604051908101604052806040805190810160405280600981526020017f416c696365426c7565000000000000000000000000000000000000000000000081525081526020016040805190810160405280600681526020017f426973717565000000000000000000000000000000000000000000000000000081525081526020016040805190810160405280600981526020017f4361646574426c7565000000000000000000000000000000000000000000000081525081526020016040805190810160405280600881526020017f4461726b426c756500000000000000000000000000000000000000000000000081525081526020016040805190810160405280600981526020017f46697265427269636b000000000000000000000000000000000000000000000081525081526020016040805190810160405280600981526020017f4761696e73626f726f000000000000000000000000000000000000000000000081525081526020016040805190810160405280600881526020017f486f6e657944657700000000000000000000000000000000000000000000000081525081526020016040805190810160405280600981526020017f496e6469616e526564000000000000000000000000000000000000000000000081525081526020016040805190810160405280600581526020017f4b68616b6900000000000000000000000000000000000000000000000000000081525081526020016040805190810160405280600981526020017f4c696768744379616e0000000000000000000000000000000000000000000000815250815250905080600a4260405180828152602001915050604051809103902060019004811515612b4957fe5b06600a81101515612b5657fe5b602002015191505090565b600060644260405180828152602001915050604051809103902060019004811515612b8857fe5b06905090565b60006001804260405180828152602001915050604051809103902060019004811515612bb657fe5b0614905090565b612bc5612f51565b600060a0604051908101604052808a815260200189151581526020018881526020018781526020018681525091506001600683908060018154018082558091505090600182039060005260206000209060050201600090919290919091506000820151816000015560208201518160010160006101000a81548160ff0219169083151502179055506040820151816002019080519060200190612c69929190612f83565b506060820151816003019080519060200190612c86929190612f83565b506080820151816004019080519060200190612ca3929190612f83565b5050500390508260036000838152602001908152602001600020819055507fd7966982b368e47e88c850771591c8aa417bdcb09b530a874ec59183301cd5e1818a8a8a8a8a898b60405180898152602001888152602001871515151581526020018060200180602001806020018681526020018573ffffffffffffffffffffffffffffffffffffffff1673ffffffffffffffffffffffffffffffffffffffff168152602001848103845289818151815260200191508051906020019080838360005b83811015612d80578082015181840152602081019050612d65565b50505050905090810190601f168015612dad5780820380516001836020036101000a031916815260200191505b50848103835288818151815260200191508051906020019080838360005b83811015612de6578082015181840152602081019050612dcb565b50505050905090810190601f168015612e135780820380516001836020036101000a031916815260200191505b50848103825287818151815260200191508051906020019080838360005b83811015612e4c578082015181840152602081019050612e31565b50505050905090810190601f168015612e795780820380516001836020036101000a031916815260200191505b509b50505050505050505050505060405180910390a1612e9b60008583612453565b505050505050505050565b6000806000841415612ebb5760009150612eda565b8284029050828482811515612ecc57fe5b04141515612ed657fe5b8091505b5092915050565b6000808284811515612eef57fe5b0490508091505092915050565b600080823b905060008111915050919050565b6000828211151515612f1d57fe5b818303905092915050565b61014060405190810160405280600a905b6060815260200190600190039081612f395790505090565b60a060405190810160405280600081526020016000151581526020016060815260200160608152602001606081525090565b828054600181600116156101000203166002900490600052602060002090601f016020900481019282601f10612fc457805160ff1916838001178555612ff2565b82800160010185558215612ff2579182015b82811115612ff1578251825591602001919060010190612fd6565b5b509050612fff9190613003565b5090565b61302591905b80821115613021576000816000905550600101613009565b5090565b905600a165627a7a7230582085c62f82c268018aee2015bb8884024a529f663a9cd4c0a69a24aaf50396f60d0029",
  "source": "pragma solidity ^0.4.18;\n\nimport \"./AccessControl.sol\";\nimport \"./ERC721.sol\";\nimport \"./SafeMath.sol\";\n\ncontract DetailedERC721 is ERC721 {\n    function name() public view returns (string _name);\n    function symbol() public view returns (string _symbol);\n}\n\ncontract CryptoPlanets is AccessControl, DetailedERC721 {\n    using SafeMath for uint;\n    \n    event TokenCreated(\n        uint tokenId, \n        uint _age, \n        bool _habitable, \n        string _name, \n        string _stellarSystem, \n        string _color, \n        uint price, \n        address owner\n    );\n    \n    event TokenSold(\n        uint indexed tokenId, \n        uint _age, \n        bool _habitable, \n        string _name, \n        string _stellarSystem, \n        string _color, \n        uint sellingPrice, \n        uint newPrice,\n        address indexed oldOwner,\n        address indexed newOwner\n    );\n\n    mapping (uint => address) private tokenIdToOwner;\n    mapping (uint => uint) private tokenIdToPrice;\n    mapping (address => uint) private ownershipTokenCount;\n    mapping (uint => address) private tokenIdToApproved;\n\n    struct Planet {\n        uint age;\n        bool habitable;\n        string name;\n        string stellarSystem;\n        string color;\n    }\n\n    Planet[] private planets;\n\n    uint private startingPrice = 0.01 ether;\n    bool private erc721Enabled = false;\n\n    modifier onlyERC721() {\n        require(erc721Enabled);\n        _;\n    }\n\n    function createToken(string _name, address _owner, uint _price) public onlyCLevel {\n        require(_owner != address(0));\n        require(_price >= startingPrice);\n\n        string memory _stellarSystem = _generateRandomSSystem();\n        string memory _color = _generateRandomColor();\n        uint _age = _generateRandomAge();\n        bool _habitable = _generateRandomHabitability();\n        _createToken(_age, _habitable, _name, _stellarSystem, _color, _owner, _price); \n    }\n\n    function createToken(string _name) public onlyCLevel {\n        string memory _stellarSystem = _generateRandomSSystem();\n        string memory _color = _generateRandomColor();\n        uint _age = _generateRandomAge();\n        bool _habitable = _generateRandomHabitability();\n        _createToken(_age, _habitable, _name, _stellarSystem, _color, address(this), startingPrice);\n    }\n\n    function _generateRandomSSystem() private view returns(string) {\n        \n        string[10] memory stellarSystems = [\n            \"Alpha Andromeda\", \n            \"Beta Botes\", \n            \"Gamma Caelum\",\n            \"Alpha Delphinus\",\n            \"Beta Equuleus\",\n            \"Gamma Fornax\",\n            \"Alpha Gemini\",\n            \"Beta Hercules\",\n            \"Gamma Indus\",\n            \"Delta Lacerta\"\n        ];\n\n        return stellarSystems[uint(keccak256(now)) % 10];\n    }\n\n    function _generateRandomColor() private view returns(string) {\n        string[10] memory colors = [\n            \"AliceBlue\", \n            \"Bisque\", \n            \"CadetBlue\",\n            \"DarkBlue\",\n            \"FireBrick\",\n            \"Gainsboro\",\n            \"HoneyDew\",\n            \"IndianRed\",\n            \"Khaki\",\n            \"LightCyan\"\n        ];\n\n        return colors[uint(keccak256(now)) % 10];\n    }\n\n    function _generateRandomAge() private view returns(uint) {\n        return (uint(keccak256(now)) % 100);\n    }\n    \n    function _generateRandomHabitability() private view returns(bool) {\n        return uint(keccak256(now)) % 1 == 1;\n    }\n\n\n    function _createToken(uint _age, bool _habitable, string _name, string _stellarSystem, string _color, address _owner, uint _price) private {\n        Planet memory _planet = Planet({\n            age: _age,\n            habitable: _habitable,\n            name: _name,\n            stellarSystem: _stellarSystem,\n            color: _color\n        });\n        uint newTokenId = planets.push(_planet) - 1;\n        tokenIdToPrice[newTokenId] = _price;\n\n        TokenCreated(newTokenId, _age, _habitable, _name, _stellarSystem, _color, _price, _owner);\n\n        _transfer(address(0), _owner, newTokenId);\n    }\n\n    function getToken(uint _tokenId) public view returns(\n        string _tokenName,\n        uint _age,\n        bool _habitable,\n        string _stellarSystem,\n        string _color,\n        uint _price,\n        uint _nextPrice,\n        address _owner\n    ) {\n        _tokenName = planets[_tokenId].name;\n        _age = planets[_tokenId].age;\n        _habitable = planets[_tokenId].habitable;\n        _stellarSystem = planets[_tokenId].stellarSystem;\n        _color = planets[_tokenId].color;\n        _price = tokenIdToPrice[_tokenId];\n        _nextPrice = nextPriceOf(_tokenId);\n        _owner = tokenIdToOwner[_tokenId];\n    }\n\n    function getAllTokens() public view returns(uint[], uint[], address[]) {\n        uint total = totalSupply();\n        uint[] memory prices = new uint[](total);\n        uint[] memory nextPrices = new uint[](total);\n        address[] memory owners = new address[](total);\n\n        for(uint i = 0; i < total; i++) {\n            prices[i] = tokenIdToPrice[i];\n            nextPrices[i] = nextPriceOf(i);\n            owners[i] = tokenIdToOwner[i];\n        }\n\n        return (prices, nextPrices, owners);\n    }\n\n    function tokensOf(address _owner) public view returns(uint[]) {\n        uint tokenCount = balanceOf(_owner);\n        if (tokenCount == 0) {\n            return new uint[](0);\n        } else {\n            uint[] memory result = new uint[](tokenCount);\n            uint total = totalSupply();\n            uint resultIndex = 0;\n            \n            for (uint i = 0; i < total; i++) {\n                if (tokenIdToOwner[i] == _owner) {\n                    result[resultIndex] = i;\n                    resultIndex++;\n                }\n            }\n            \n            return result;\n        }\n    }\n\n    function withdrawBalance(address _to, uint _amount) public onlyCEO {\n        require(_amount <= this.balance);\n\n        if (_amount == 0) {\n            _amount = this.balance;\n        }\n\n        if (_to == address(0)) {\n            ceoAddress.transfer(_amount);\n        } else {\n            _to.transfer(_amount);\n        }\n    }\n\n    function purchase(uint _tokenId) public payable whenNotPaused {\n        address oldOwner = ownerOf(_tokenId);\n        address newOwner = msg.sender;\n        uint sellingPrice = priceOf(_tokenId);\n\n        require(oldOwner != address(0));\n        require(newOwner != address(0));\n        require(oldOwner != newOwner);\n        require(!_isContract(newOwner));\n        require(sellingPrice > 0);\n        require(msg.value >= sellingPrice);\n\n        _transfer(oldOwner, newOwner, _tokenId);\n\n        tokenIdToPrice[_tokenId] = nextPriceOf(_tokenId);\n        uint newPrice = priceOf(_tokenId);\n\n        TokenSold(\n            _tokenId,\n            planets[_tokenId].age,\n            planets[_tokenId].habitable,\n            planets[_tokenId].name,\n            planets[_tokenId].stellarSystem,\n            planets[_tokenId].color,  \n            sellingPrice,\n            newPrice,\n            oldOwner,\n            newOwner\n        );\n\n        uint excess = msg.value.sub(sellingPrice);\n        uint contractCut = sellingPrice.mul(5).div(100); //5%\n\n        if (oldOwner != address(this)) {\n            oldOwner.transfer(sellingPrice.sub(contractCut));\n        }\n\n        if (excess > 0) {\n            newOwner.transfer(excess);\n        }\n    }\n\n    function priceOf(uint _tokenId) public view returns(uint _price) {\n        return tokenIdToPrice[_tokenId];\n    }\n\n    uint private increaseLimit1 = 0.1 ether;\n    uint private increaseLimit2 = 1 ether;\n    uint private increaseLimit3 = 10 ether;\n\n    function nextPriceOf(uint _tokenId) public view returns(uint _nextPrice) {\n        uint _price = priceOf(_tokenId);\n        if (_price < increaseLimit1) {\n            return _price.mul(3).div(2);\n        } else if (_price < increaseLimit2) {\n            return _price.mul(5).div(4);\n        } else if (_price < increaseLimit3) {\n            return _price.mul(11).div(10);\n        }\n    }\n\n    function enableERC721() public onlyCEO {\n        erc721Enabled = true;\n    }\n\n    function totalSupply() public view returns (uint _totalSupply) {\n        _totalSupply = planets.length;\n    }\n\n    function balanceOf(address _owner) public view returns (uint _balance) {\n        _balance = ownershipTokenCount[_owner];\n    }\n\n    function ownerOf(uint _tokenId) public view returns (address _owner) {\n        _owner = tokenIdToOwner[_tokenId];\n    }\n\n    function approve(address _to, uint _tokenId) public whenNotPaused onlyERC721 {\n        require(_owns(msg.sender, _tokenId));\n        tokenIdToApproved[_tokenId] = _to;\n        Approval(msg.sender, _to, _tokenId);\n    }\n\n    function transferFrom(address _from, address _to, uint _tokenId) public whenNotPaused onlyERC721 {\n        require(_to != address(0));\n        require(_owns(_from, _tokenId));\n        require(_approved(msg.sender, _tokenId));\n\n        _transfer(_from, _to, _tokenId);\n    }\n\n    function transfer(address _to, uint _tokenId) public whenNotPaused onlyERC721 {\n        require(_to != address(0));\n        require(_owns(msg.sender, _tokenId));\n\n        _transfer(msg.sender, _to, _tokenId);\n    }\n\n    function implementsERC721() public view whenNotPaused returns(bool) {\n        return erc721Enabled;\n    }\n\n    function takeOwnership(uint _tokenId) public whenNotPaused onlyERC721 {\n        require(_approved(msg.sender, _tokenId));\n        _transfer(tokenIdToOwner[_tokenId], msg.sender, _tokenId);\n    }\n\n    function name() public view returns(string _name) {\n        _name = \"CryptoPlanets\";\n    }\n\n    function symbol() public view returns(string _symbol) {\n        _symbol = \"CPLN\";\n    }\n\n    function _owns(address _claimant, uint _tokenId) private view returns(bool) {\n        return tokenIdToOwner[_tokenId] == _claimant;\n    }\n\n    function _approved(address _to, uint _tokenId) private view returns(bool) {\n        return tokenIdToApproved[_tokenId] == _to;\n    }\n\n    function _transfer(address _from, address _to, uint _tokenId) private {\n        ownershipTokenCount[_to]++;\n        tokenIdToOwner[_tokenId] = _to;\n\n        if(_from != address(0)) {\n            ownershipTokenCount[_from]--;\n            delete tokenIdToApproved[_tokenId];\n        }\n\n        Transfer(_from, _to, _tokenId);\n    }\n\n    function _isContract(address addr) private view returns(bool) {\n        uint size;\n        assembly { size := extcodesize(addr) }\n        return size > 0;\n    }\n}",
  "sourcePath": "/home/radio/code/_Planets/contracts/CryptoPlanets.sol",
  "compiler": {
    "name": "solc",
    "version": "0.4.24+commit.e67f0147.Emscripten.clang"
  },
  "schemaVersion": "2.0.1",
  "updatedAt": "2018-07-12T18:55:51.028Z"
}